{
  "contractName": "UserDetails",
  "abi": [
    {
      "constant": true,
      "inputs": [],
      "name": "getUserCout",
      "outputs": [
        {
          "internalType": "uint8",
          "name": "",
          "type": "uint8"
        }
      ],
      "payable": false,
      "stateMutability": "view",
      "type": "function"
    },
    {
      "constant": false,
      "inputs": [
        {
          "internalType": "string",
          "name": "firstName",
          "type": "string"
        },
        {
          "internalType": "string",
          "name": "lastName",
          "type": "string"
        },
        {
          "internalType": "string",
          "name": "userAddress",
          "type": "string"
        }
      ],
      "name": "addUserData",
      "outputs": [],
      "payable": false,
      "stateMutability": "nonpayable",
      "type": "function"
    },
    {
      "constant": true,
      "inputs": [
        {
          "internalType": "uint256",
          "name": "id",
          "type": "uint256"
        }
      ],
      "name": "getUserDetails",
      "outputs": [
        {
          "internalType": "string",
          "name": "",
          "type": "string"
        },
        {
          "internalType": "string",
          "name": "",
          "type": "string"
        },
        {
          "internalType": "string",
          "name": "",
          "type": "string"
        }
      ],
      "payable": false,
      "stateMutability": "view",
      "type": "function"
    }
  ],
  "bytecode": "0x60806040526000600160006101000a81548160ff021916908360ff16021790555034801561002c57600080fd5b506107e28061003c6000396000f3fe608060405234801561001057600080fd5b50600436106100405760003560e01c8062636c6b146100455780631c1a9f7b14610069578063e22a8202146101e8575b600080fd5b61004d6103d1565b604051808260ff1660ff16815260200191505060405180910390f35b6100956004803603602081101561007f57600080fd5b81019080803590602001909291905050506103e8565b60405180806020018060200180602001848103845287818151815260200191508051906020019080838360005b838110156100dd5780820151818401526020810190506100c2565b50505050905090810190601f16801561010a5780820380516001836020036101000a031916815260200191505b50848103835286818151815260200191508051906020019080838360005b83811015610143578082015181840152602081019050610128565b50505050905090810190601f1680156101705780820380516001836020036101000a031916815260200191505b50848103825285818151815260200191508051906020019080838360005b838110156101a957808201518184015260208101905061018e565b50505050905090810190601f1680156101d65780820380516001836020036101000a031916815260200191505b50965050505050505060405180910390f35b6103cf600480360360608110156101fe57600080fd5b810190808035906020019064010000000081111561021b57600080fd5b82018360208201111561022d57600080fd5b8035906020019184600183028401116401000000008311171561024f57600080fd5b91908080601f016020809104026020016040519081016040528093929190818152602001838380828437600081840152601f19601f820116905080830192505050505050509192919290803590602001906401000000008111156102b257600080fd5b8201836020820111156102c457600080fd5b803590602001918460018302840111640100000000831117156102e657600080fd5b91908080601f016020809104026020016040519081016040528093929190818152602001838380828437600081840152601f19601f8201169050808301925050505050505091929192908035906020019064010000000081111561034957600080fd5b82018360208201111561035b57600080fd5b8035906020019184600183028401116401000000008311171561037d57600080fd5b91908080601f016020809104026020016040519081016040528093929190818152602001838380828437600081840152601f19601f82011690508083019250505050505050919291929050505061060d565b005b6000600160009054906101000a900460ff16905090565b6060806060600080858152602001908152602001600020600001600080868152602001908152602001600020600101600080878152602001908152602001600020600201828054600181600116156101000203166002900480601f0160208091040260200160405190810160405280929190818152602001828054600181600116156101000203166002900480156104c15780601f10610496576101008083540402835291602001916104c1565b820191906000526020600020905b8154815290600101906020018083116104a457829003601f168201915b50505050509250818054600181600116156101000203166002900480601f01602080910402602001604051908101604052809291908181526020018280546001816001161561010002031660029004801561055d5780601f106105325761010080835404028352916020019161055d565b820191906000526020600020905b81548152906001019060200180831161054057829003601f168201915b50505050509150808054600181600116156101000203166002900480601f0160208091040260200160405190810160405280929190818152602001828054600181600116156101000203166002900480156105f95780601f106105ce576101008083540402835291602001916105f9565b820191906000526020600020905b8154815290600101906020018083116105dc57829003601f168201915b505050505090509250925092509193909250565b6106156106e7565b83816000018190525082816020018190525081816040018190525080600080600160009054906101000a900460ff1660ff1681526020019081526020016000206000820151816000019080519060200190610671929190610708565b50602082015181600101908051906020019061068e929190610708565b5060408201518160020190805190602001906106ab929190610708565b509050506001600081819054906101000a900460ff168092919060010191906101000a81548160ff021916908360ff1602179055505050505050565b60405180606001604052806060815260200160608152602001606081525090565b828054600181600116156101000203166002900490600052602060002090601f016020900481019282601f1061074957805160ff1916838001178555610777565b82800160010185558215610777579182015b8281111561077657825182559160200191906001019061075b565b5b5090506107849190610788565b5090565b6107aa91905b808211156107a657600081600090555060010161078e565b5090565b9056fea265627a7a72315820420a7020de875c1449bb20970392a0355d8f2e5064af08743332079750aeaf3f64736f6c63430005100032",
  "source": "pragma solidity >=0.4.21 <0.7.0;\r\n\r\ncontract UserDetails{\r\n    struct UserData {\r\n        string firstName;\r\n        string lastName;\r\n        string userAddress;\r\n    }\r\n    mapping (uint => UserData) User;\r\n    uint8 userCount = 0;\r\n\r\n    function getUserCout() public view returns(uint8) {\r\n        return userCount;\r\n    }\r\n\r\n    function addUserData (string memory firstName, string memory lastName, string memory userAddress) public {\r\n\r\n        UserData memory newUserData;\r\n        newUserData.firstName = firstName;\r\n        newUserData.lastName = lastName;\r\n        newUserData.userAddress = userAddress;\r\n        User[userCount] = newUserData;\r\n        userCount++;\r\n\r\n    }\r\n\r\n    function getUserDetails (uint id) public view returns(string memory,string memory,string memory) {\r\n        return(User[id].firstName,User[id].lastName, User[id].userAddress);\r\n    }\r\n\r\n\r\n}",
  "sourcePath": "D:\\Projects\\Learning\\Blockchain\\Blockchain\\2_UserDetails_SetGet\\contracts\\UserDetails.sol",
  "compiler": {
    "name": "solc",
    "version": "0.5.16+commit.9c3226ce.Emscripten.clang"
  },
  "schemaVersion": "3.1.0",
  "updatedAt": "2020-04-15T18:44:05.342Z",
  "devdoc": {
    "methods": {}
  },
  "userdoc": {
    "methods": {}
  }
}